:020000040800F2
:10000000F01F002041010008E72900082120000816
:1000100000000000000000000000000000000000E0
:10002000000000000000000000000000FD2C00089F
:100030000000000000000000FF000008214600084A
:10004000530100080000000053010008530100089C
:100050005301000853010008530100085301000830
:10006000000000005301000853010008530100087C
:10007000530100085301000853010008000000006C
:1000800053010008E9460008000000005301000881
:1000900053010008530100085301000853010008F0
:1000A000530100085301000853010008A94C00083F
:1000B000FD4C00080348854600F026F9004800473B
:1000C00089520008F01F0020084B1968086820308A
:1000D00080F30988022080F31488BFF36F8F3FBC40
:1000E000AE4608BC04BC62B618470000640000209D
:1000F000EFF3108072B6704780F310887047EFF30B
:1001000009800E4B1A6820381060F0C044464D46F6
:1001100056465F46F0C008B572B605F017FD62B6E8
:100120000CBC116808681030F0C8A046A946B24659
:10013000BB4680F309882038F0C8184764000020C7
:100140000448804704480047FEE7FEE7FEE7FEE775
:10015000FEE7FEE78D460008B500000830B50B4607
:10016000014600202022012409E00D46D5409D4291
:1001700005D31D469540491B254695404019154617
:10018000521E002DF1DC30BD10B5202A04DB0846DC
:10019000203AD040002110BD0B46D340D04020244F
:1001A000A21A91400843194610BD10B5431A934254
:1001B00009D28318881803E0401E01785B1E19706D
:1001C000521EF9D210BD03460B439B0703D009E032
:1001D00008C9121F08C0042AFAD203E00B78037082
:1001E000401C491C521EF9D210BDD2B201E002706F
:1001F000401C491EFBD270470022F6E710B513469B
:100200000A4604461946FFF7F0FF204610BD421C7F
:100210000178401C0029FBD1801A704770B5064652
:1002200004F0D4FD046805460A220021304600F09F
:1002300033F82C6070BDF0B51FB40646002082B0C4
:1002400005464024019100901BE0019922460F468B
:100250003046FFF799FF049A059B801A994110D305
:1002600010461946224600F061F8361A8F41019770
:10027000224601200021009F00F058F838184D4117
:1002800000902046641E0028DFDC019B0098294670
:10029000324607B0F0BD0000F7B5009C0F460026BF
:1002A0002578641C002D05D000F050F80068405DF2
:1002B000C007F5D12B2D02D02D2D18D0641E394644
:1002C0002046029A00F046F8002F04D03968A14277
:1002D00001D1009939607105022400290BDA4042EE
:1002E000002803DD04F072FD0460A007FEBD0120BC
:1002F00080020643E3E70028F8DA04F067FD0460B3
:100300000048FEBDFFFFFF7F064C0125064E05E0BD
:10031000E36807CC2B430C3C98471034B442F7D326
:10032000FFF7CCFEB0880008D088000810B5202A5E
:1003300004DB0146203A9140002010BD914020236B
:100340009C1A0346E3401943904010BD0048704793
:1003500080880008F7B582B0029C00272078641CD2
:1003600015460197302802D0002D15D015E02078D1
:100370000127641C782804D0582802D0002D09D009
:100380000BE0002D01D0102D07D10027102520787B
:10039000641C02E0082500E00A250026009610E013
:1003A0000099012769430818020C294680B271435D
:1003B00000908E183804864201D3012001902078E5
:1003C000641C294600F019F80028E9DA039800288F
:1003D00005D0002F01D0641E00E0029C046001984B
:1003E000002806D004F0F2FC02210160C81E05B00E
:1003F000F0BD009930040843F9E73A2800D23038BC
:10040000202302469A43412A01D3104637388842B6
:1004100001D30020C043704770B58C180578401C8C
:100420006B075B0F01D10378401C2A1106D10278BB
:10043000401C03E006780E70401C491C5B1EF9D17D
:100440002B0705D40023521E0DD40B70491CFAE76C
:100450000378401CCB1A921C03E01D780D70491CD8
:100460005B1C521EF9D5A142D8D3002070BDFFB548
:1004700081B017460D4606460CE0344606E0294694
:1004800020460A9A05F02AF9641CE4B2BC42F6D36D
:100490006D1CEDB204988542EFD305B0F0BD0000AD
:1004A000F8B5404C207801287AD9012149033E480B
:1004B00000F012FC0025002823D0A58300F048FAA4
:1004C000A07B401CC0B2A073042802D0022807D031
:1004D00014E020780B2801D010280FD1A5730DE06F
:1004E00020780321022801D3042820D908281ED00F
:1004F00009281CD0052801D30728EFD9C82004F00B
:10050000F1FE0221284800F0E7FB0127274E0028D2
:1005100020D0A583A07B00280BD031182039C87FBC
:100520000246303A092A12D2401CC8770FE0A17364
:10053000E4E767702078401C2070002005F0F0F898
:1005400005F084F92078122801D902202070C820F3
:1005500004F0C8FE01210903134800F0BDFB002888
:100560001ED0A583A07B002809D031182039C87F70
:100570000246313A082A10D8401EC8770DE067704D
:100580002078401E2070002005F0CAF805F05EF9C2
:100590002078022801D212202070C82004F0A2FE88
:1005A000F8BD00000800002000040048740200208C
:1005B00010B50A68064B424008200A60D40702D0F2
:1005C00052085A4000E052080A60401EF6D110BDA1
:1005D00001A0000030B5104A1378042B19D90F4937
:1005E00000240D78854211D14878032806D01028C0
:1005F00007D0062805D01470002030BD8878401D33
:1006000000E00820834204D1032030BD1470012093
:1006100030BD022030BD0000160100208C1B0020E0
:1006200006487D228169D200914205D30021816173
:10063000034801700120704700207047E40000204B
:100640001401002070B5184A1378042B29D91749D2
:10065000174C087825780024A8421FD14878012833
:1006600013D0022811D003280FD004280DD005285C
:100670000BD001250F4E062806D00F2808D01028D1
:1006800005D01470002070BD3570082002E0357070
:1006900088790930834204D1032070BD1470012091
:1006A00070BD022070BD000014010020281B002036
:1006B000E40000201300002070B502F003FA534C50
:1006C000FF22A18D2D325248002901D0814200D154
:1006D000A285218D0525002901D0814200D12585E3
:1006E000E18B002901D0814201D14A49E183474988
:1006F0000A2346310E88002E01D0864200D10B809D
:100700004E88002E01D0864200D14B808E88002E6C
:1007100001D0864200D18B803C49012340310E88B4
:10072000002E01D0864200D10B804E88002E01D0D1
:10073000864200D14B808E88002E01D0864200D1A7
:100740008B80617C002901D0FF2900D16374217C5A
:10075000092900D92574E17C0025012900D9E57417
:100760002D498E68761C00D18D60CE68761C00D134
:10077000CD600E69761C00D10D614E68761C00D1EB
:100780004D604E88864200D14D802349143108695E
:10079000461C09D0002807D0642801D964200861CC
:1007A000207DFF2802D002E00B61F9E72575257C4A
:1007B0004B21C90119482B0004F0FAFA0A06080B6C
:1007C00016190D1C1F22250D026005E04B21C900E2
:1007D00001E04B210901016001F070FE607C01F035
:1007E00081FD02F0E7F970BD4B214901F3E74B2190
:1007F0008901F0E74B210902EDE74B214902EAE7C5
:10080000E1210902E7E70649E5E7000008000020CA
:10081000FFFF0000D20400004C0200200000002076
:10082000405E020010B50146034802F09DF80349FE
:100830000020C861012010BDC41A0020E40000207F
:1008400010B5044C0448216902F0BCF80020206176
:10085000012010BDE40000201C190020704700009A
:1008600006490020C861064801690422114301615C
:10087000016940221143016170470000000400201B
:1008800000200240064A0021D16106490A6902237C
:100890001A430A61486108694022104308617047A1
:1008A000000400200020024010B5054B0022DA6150
:1008B000044A1369012423431361018010BD000021
:1008C000000400200020024010B50B4A0020D1682F
:1008D000CB060A4904D5C86902231843C861102011
:1008E000D3685B0705D5CB6901242343CB61042181
:1008F0000843D06010BD000000200240000400202A
:1009000070B5054600F0F4F90646104C0AE0681C84
:1009100008D0002D04D000F0EBF9801BA84201D9CB
:10092000032070BDE068C007F1D1E068800601D502
:100930002020E060E068C00602D4E068400703D5EC
:10094000FFF7C2FF012070BD002070BD00200240F3
:1009500070B5204D01242878012805D00A2803D03D
:100960000B2801D010281BD16C7504230A223A21D0
:100970002D2001F041FB6C7504230A223A21372017
:1009800001F03AFB6C7504230A223A21412001F060
:1009900033FB6C7504230A223A214B2001F02CFB17
:1009A0002878801E072814D86C7504230A223A215F
:1009B0002A2001F021FB6C7504230A223A214120F0
:1009C00001F01AFB6C7504230A223A214B2001F036
:1009D00013FB70BD0800002070B5002401462031D3
:1009E0004A78022A03D004218163012416E00268B8
:1009F00013680E25AB431360026813685B085B0045
:100A000013600122056C1346AB40C56B6B604A70E6
:100A100000220A70416B002900D08847204670BD33
:100A200031B500F065F9009C0546601C00D0641CDF
:100A300000F05EF9401BA042FAD338BDF8B5054678
:100A400023480F46017E012601290BD001210176A2
:100A50002868204C012807D02046FFF751FF0028C6
:100A600013D030E00220F8BD2046FFF749FF0028F0
:100A700029D1FFF7F5FE2046FFF742FF064616484C
:100A800001690422914301611DE00020C0433860E8
:100A90006C6812E02046FFF7F5FE0E48FFF730FFC6
:100AA00006460D48026902218A430261002E01D0E8
:100AB0003C6008E0012080022418A8688102686870
:100AC0000818A042E6D80248002101763046F8BD59
:100AD0000004002050C300000020024003480169C8
:100AE0008022114301610020704700000020024075
:100AF000F0B51FB407461A480024017E15461E466D
:100B0000012907D0012101761648FFF7F9FE0028D8
:100B100003D020E0022005B0F0BD012F02D0022F4B
:100B200000D00427220128463146FFF72DFB81B271
:100B3000019862001018FFF7B7FE0A48FFF7E0FEC1
:100B400009490A69520852000A61002803D1641C4D
:100B5000E4B2BC42E6D3024900220A76DBE7000099
:100B60000004002050C30000002002400548016935
:100B7000090605D5044941600449416000207047D9
:100B8000012070470020024023016745AB89EFCD6B
:100B9000F8B500238DE001249C40A44622407DD07E
:100BA0004C68022C01D0122C0CD1DC08A4002718B0
:100BB0003C6A5D07ED0E0F26AE40B4430E69AE40B1
:100BC00026433E6205685E000324B4400F79A543C6
:100BD000BF07BF0FB7402F4307604D68012D05D0F9
:100BE000022D03D0112D01D0122D0ED18568CF68B2
:100BF000A543B7402F43876047686546AF430D79EB
:100C0000ED06ED0F9D403D434560C568A5438C68EA
:100C1000B4402C43C4604C68E40049D5284CA56915
:100C200001263543A561A4699D0834400094254CF4
:100C3000AD002F19BC689D072E0F0F25B540AC43A2
:100C40000925ED06A84201D100250FE01E4DA8425E
:100C500001D101250AE01D4DA84201D1022505E080
:100C60001B4DA84201D1032500E00525B5402543D1
:100C7000BD60184C25684E689543F60300D51543B2
:100C8000256065684E689543B60300D515436560D9
:100C9000A5684E689543F60202D500E008E01543CA
:100CA000A560E5684E689543B60200D51543E5603A
:100CB0005B1C0A681446DC4000D06CE7F8BD0000FD
:100CC00000100240000001400004004800080048F5
:100CD000000C0048000401400069084000D00120D9
:100CE0007047002A01D0816170478162704700001F
:100CF00001480068704700005C00002070B50246A3
:100D000040325378202B1CD11378012B19D00123AA
:100D1000137024245470046825689D43256004687A
:100D200025681E03B5432560046825680D432560CA
:100D30000068016819430160202050700020107085
:100D400070BD022070BD70B5024640325378202B32
:100D50001BD11378012B18D0012414702423537055
:100D600003681D68A5431D6005682B680F263602C1
:100D7000B3430902194329600068016821430160F7
:100D8000202050700020107070BD022070BD000047
:100D900070B5040006D02546403568780026002846
:100DA00002D005E0012070BD2E70204600F082F9CF
:100DB00024206870206801684908490001600F21FB
:100DC0006068090688432168086121688A680120F3
:100DD000C00382438A60E1680129A16808D021220A
:100DE0009202114322689160E168022902D005E075
:100DF0000143F7E701212268C902516021684A686E
:100E00000F4B1A434A602168CA688243CA6061690D
:100E100020690843A169090208432168C860216A62
:100E2000E0690843216808602068016801221143D5
:100E300001606664202068702663AE70002070BD7B
:100E400000800002FFB50446002083B025464035EF
:100E500001906A78202A7FD122689269D2431204D5
:100E60007AD52A78012A77D001222A7024226A7042
:100E700060648F05BF0DE06801280BD00520C0021B
:100E8000012138188902884321684860FFF730FF44
:100E9000064612E03148F3E70698401C0DD006984C
:100EA000002805D0FFF724FF811B0698814204D952
:100EB000202068700020287043E020688169C943C1
:100EC000890606D58069C043C00602D56878A02887
:100ED000E2D120688069069BC043C00600960ED50B
:100EE00000222021204601F083F9002829D1216821
:100EF0002020C86168700020287007B0F0BD002273
:100F00002021204601F074F900281AD12068102110
:100F1000C16120682021C1610198411C019105999E
:100F2000884214D120684168012292031143416034
:100F30000096002220212046069B01F059F9002846
:100F400002D00320D9E707E021682020C861019979
:100F5000059881428FD3ABE70220CEE70020000244
:100F6000FFB5054604464035687883B0202876D121
:100F70000C98002874D00D98002871D0287801288A
:100F80006DD001202870FFF7B3FE074601220090C4
:100F90001923D103204601F02BF9002853D1212039
:100FA00068704020A870002666640C9860620D98F6
:100FB000608566630E980090019704A90EC92046CB
:100FC00001F07AF8002804D0606C2E7004286AD0F2
:100FD00039E0608DFF2805D9FF22228501231B06F9
:100FE000009606E0608D20850096208D0123C2B218
:100FF0005B062046049901F0E9F83A4620460E992E
:1010000001F041F9002803D0606C04284BD01AE0AD
:10101000606A411C6162216800788862608D401EB0
:101020006085208D401E0004000C208524D1608D39
:10103000002821D000970022802120460E9B01F03D
:10104000D7F8002802D0032007B0F0BD608DFF283C
:1010500007D9FF22228501231B06009608E024E021
:1010600021E0608D20850096208D0123C2B25B06B1
:101070002046049901F0AAF8608D0028BDD13A46B7
:1010800020460E9901F0D8F80028BDD12068202113
:10109000C16120684268064B1A4042606970AE70B8
:1010A0002E700020D0E70120CEE70220CCE7000020
:1010B00000E800FE10B586B0044614216846FFF72C
:1010C0009BF81249206888421ED1114C61690120A9
:1010D0008004014361616169014005910320800240
:1010E00000901220012101900320029104910390AD
:1010F00069460848FFF74CFDE1690120800501437E
:10110000E161E1690140059106B010BD0058004061
:10111000001002400004004870B504000FD02168A0
:101120001348086021681348086003CC41602068B8
:10113000083C21688860FFF7DBFD054608E00120D8
:1011400070BDFFF7D5FD401B272801D9032070BDD6
:101150002068C0680028F4D120680269E1688A42EA
:1011600001D0016101E004490160002070BD000070
:10117000CCCC000055550000AAAA00000068024926
:101180000160002070470000AAAA00000248016820
:10119000491C0160704700005C00002010B5064843
:1011A0000168102211430160032000F007F800F0ED
:1011B00017F8002010BD00000020024010B50446C2
:1011C00000F03EF97D21C900FEF7C8FF00F034FBB6
:1011D00000222146501E00F025F8002010BD00001E
:1011E00008B50A4881690122114381618169114072
:1011F0000091C26901040A43C261C069002208402B
:1012000003210090481F00F00DF808BD00100240B7
:10121000C106C90E012088400149086070470000DE
:1012200000E100E010B501F0DFFB10BDF8B50546A8
:101230000068354CC00352D5E0690026C00007D4D1
:10124000E16920040143E161E16901400126009167
:101250002E480168C90510D4016882151143016048
:10126000FFF746FD074604E0FFF742FDC01B642878
:1012700024D826480068C005F6D5206A03273F0217
:10128000384020D06968394081421CD0206A226AE7
:10129000B843012109040A432262226A8A43226276
:1012A0002062C0070FD0FFF723FD009008E0FFF792
:1012B0001FFD0099411A1648814201D90320F8BD4B
:1012C000206A8007F3D5206A6968B8430843206222
:1012D000002E04D0E169012000078143E1612878F4
:1012E000C00705D0206BA9688008800008432063F0
:1012F0002878800605D5206B10218843E9680843CB
:1013000020630020F8BD0000001002400070004083
:1013100088130000F8B5054644480E460068C0072B
:10132000C00FB0420AD24148016849084900314320
:1013300001600068C007C00FB0425CD128783C4C07
:10134000800705D56068F0218843A968084360607C
:101350002878C0073FD06868012813D02168022888
:1013600013D08907002946DA61688908890001439A
:101370006160FFF7BDFC6968074601290DD00229AD
:1013800017D024E021688903ECE78901EAE7FFF739
:10139000AFFCC11B2748814217D860680007800F47
:1013A0000128F4D117E0FFF7A3FCC11B21488142BB
:1013B0000BD860680007800F0228F4D10BE0FFF71C
:1013C00097FCC11B1B48814201D90320F8BD60680E
:1013D0000007800FF3D115480168C907C90FB14252
:1013E0000BD9016849084900314301600068C00712
:1013F000C00FB04201D00120F8BD2878400706D5C3
:101400006068072109028843E9680843606000F0CA
:101410002DF86168084A0906090F515CC840074960
:1014200008600320FFF7CAFE0020F8BD002002403C
:101430000010024088130000545E00086000002085
:10144000014800687047000060000020044805491A
:1014500000684968044A4905490F515CC840704713
:101460006000002000100240645E000810B512A366
:101470000FCB88B06C460FC413A30FCB0FC4164913
:101480004A680C20134603401448042B0FD0082B45
:101490000DD193021B0F6C46E45CC96A04AB0907CB
:1014A000090F595CD20304D5FEF758FE604308B01B
:1014B00010BD0B486043FAE702030405060708095C
:1014C0000A0B0C0D0E0F101001020304050607088D
:1014D000090A0B0C0D0E0F100010024000127A00CA
:1014E00000093D00FEB504460078D04DC00747D046
:1014F00068680007800F012807D068680007800F20
:10150000022809D16868C00306D52868800337D54A
:10151000606800287ED033E0012062680004012A60
:1015200011D08100002A01D0052A10D02A688243F8
:101530002A602868884328606068002814D0FFF774
:10154000D7FB06460CE0296801432960F4E72A68C6
:101550000A432A60F7E7FFF7CBFB801B64286FD8AC
:1015600028688003F7D50BE0FFF7C2FB064604E0CE
:10157000FFF7BEFB801B6428F1D828688003F7D4EE
:1015800020780126800700283BDA68680007800F72
:1015900007D068680007800F022809D16868C00377
:1015A00006D42868800715D5E068012832D111E0FB
:1015B000E0680028286815D030432860FFF798FBC2
:1015C000074604E0FFF794FBC01B0228C7D8286831
:1015D0008007F7D52868F82188432169C9000843A6
:1015E00028600EE0400840002860FFF781FB0746B6
:1015F00004E0FFF77DFBC01B0228B0D828688007F5
:10160000F7D42078000724D5E0690028686A10D054
:10161000304300E008E16862FFF76AFB074604E038
:10162000FFF766FBC01B022899D8686A8007F7D5C8
:101630000FE0400840006862FFF75AFB074605E0EC
:101640009DE0FFF755FBC01B022888D8686A800719
:10165000F7D4207804274007002860DA00200190A2
:10166000E869C00008D4E969B8060143E961E9699D
:1016700001400120009101906D480168C90511D415
:101680000168821511430160FFF732FB009005E00D
:10169000FFF72EFB0099401A642870D86448006850
:1016A000C005F5D5A06801280AD0002801D005287A
:1016B00010D0286A400840002862286AB84301E038
:1016C000286A30432862A068002812D0FFF710FB78
:1016D00000900AE0286A38432862F1E7FFF708FB28
:1016E0000099411A5348814249D8286A8007F5D5A4
:1016F0000DE0FFF7FDFA009006E0FFF7F9FA009918
:10170000411A4C4881423AD8286A8007F5D401989A
:10171000002804D0E969012000078143E9612078AD
:10172000C00635D5606901280CD0401D686B23D0F8
:1017300038436863686B400840006863FFF7D8FA75
:10174000064622E0686B38436863686B3043686321
:10175000FFF7CEFA064604E0FFF7CAFA801B02281C
:101760005BD8686B8007F7D5686BF8218843A1695F
:10177000C900084368630BE0B8436863F4E74CE0D2
:10178000FFF7B6FA801B022847D8686B8007F7D4AA
:10179000206A002846D069680907890F022943D0CA
:1017A000012636060228286805D0B0432860FFF7D6
:1017B0009FFA044633E0B0432860FFF799FA0746E2
:1017C00004E0FFF795FAC01B022826D8286880019C
:1017D000F7D4E86AE16A000900010843E862616A37
:1017E000A06A084369683D22120491430843686077
:1017F000286830432860FFF77BFA044604E0FFF7CF
:1018000077FA001B022808D828688001F7D509E07C
:10181000FFF76EFA001B022801D90320FEBD2868DD
:101820008001F5D40020FEBD0120FEBD0010024065
:101830000070004088130000094910B5401E88421E
:1018400001D9012010BD074C60610321081F01F080
:10185000CBF80020A06107202061002010BD00000F
:10186000FFFFFF0000E000E07047704770B5040024
:1018700005D025462035687F002802D006E00120EB
:1018800070BD00202877204600F00AF80220687713
:10189000211D206802F030FF01206877002070BD14
:1018A00008B50068094988420FD10948C26910216A
:1018B0000A43C261C0690022084000900321112040
:1018C000FFF7B0FC1120FFF7A3FC08BD001000409B
:1018D000001002400268D36801210B43D360006806
:1018E00002680A43026000207047704770B50446E2
:1018F000006801690025C9438907002915DBC16813
:10190000C943890711D4E91E0161012020772068AD
:1019100080698007204602D0FFF7E7FF04E000F06F
:1019200096F8204600F094F8257720680169C943AD
:10193000490717D4C168C943490713D40421C943CF
:10194000016102202077206880698005800F204691
:1019500002D0FFF7CAFF04E000F079F8204600F05B
:1019600077F8257720680169C943090716D4C1684B
:10197000C943090712D40821C94301610420207713
:101980002068C0698007204602D0FFF7AEFF04E060
:1019900000F05DF8204600F05BF8257720680169CB
:1019A000C943C90617D4C168C943C90613D4102155
:1019B000C9430161082020772068C0698005800F35
:1019C000204602D0FFF791FF04E000F040F82046E7
:1019D00000F03EF8257720680169C943C90708D19E
:1019E000C168C943C90704D1891E0161204600F0BE
:1019F00031F820680169C943090609D4C168C9439F
:101A0000090605D48021C94301612046FFF72CFF58
:101A100020680169C943490609D4C168C943490618
:101A200005D44021C9430161204600F045F82068F3
:101A30000169C943890609D4C168C943890605D427
:101A40002021C94301612046FFF70FFF70BD704799
:101A5000704700000068104988421BD10F48016898
:101A6000491C01600E480168491C01600D4801686D
:101A7000491C01600C490888401C08800B490888F3
:101A8000401C08800A490888401C088009490888C9
:101A9000401C08807047000000100040FC0000203F
:101AA0000C01002010010020040000202400002070
:101AB000220000202E00002070477047F8B5036810
:101AC0000446D96918680D072D0F07D18A0605D578
:101AD000820603D5204602F0ADFFF8BD9A68002DBE
:101AE00064D0D507ED0FFF26213606402E435DD08A
:101AF000CE0706D0C60504D501261E62E36E334329
:101B0000E3668F0702230426002F06DAD70704D0E6
:101B100027683B62E76E3743E7664F0706D5D20773
:101B200004D022681662E26E1A43E2660A0709D5FB
:101B3000202202402A4305D0236808221A62E36E5D
:101B40001343E366E26E002AC7D0890604D58006F7
:101B500002D5204602F06EFFE06E000703D4206835
:101B6000806840061CD5204602F048FF2068816846
:101B7000490611D58168402291438160606E00283A
:101B80000AD012494163606EFEF726FF0028A4D0F8
:101B9000606E416B8847F8BD2046FFF78EFFF8BDA9
:101BA0002046FFF78AFF0020E066F8BD0A0605D54B
:101BB000020603D5204603F013F8F8BD4906FCD50C
:101BC0004006FAD5204602F028FFF8BDE949000892
:101BD00070B5040005D025466035687A002802D02B
:101BE00006E0012070BD00202872204600F026F893
:101BF0002420687220680168490849000160204675
:101C000002F056FF0128EDD0606A002802D020467D
:101C100002F07CFE206841680122D20291434160BB
:101C20002068816808229143816020680168012250
:101C300011430160204602F0CEFE70BDF0B587B0C2
:101C4000044614216846FEF7D7FA264F012126687C
:101C5000002225484904022303240125BE421DD148
:101C60008769CE1037438761876937400597466992
:101C70000E43466140690193084005906002009060
:101C800002AE34C609206946C006FEF781FF002275
:101C900011461B20FFF7C6FA1B201EE0134FBE4261
:101CA0001DD1C6690E43C661C6690E4005964669D8
:101CB0000E43466140690193084005900C20009056
:101CC00002AE34C609206946C006FEF761FF002255
:101CD00011461C20FFF7A6FA1C20FFF799FA07B05F
:101CE000F0BD0000003801400010024000440040F8
:101CF00070B5034660339C7A202C39D100290BD073
:101D0000002A09D0012584682D03AC4206D106695A
:101D1000002E03D1CE0701D0012070BD1E7A012E06
:101D200026D001261E724165014640310A834A834E
:101D3000FF22AC4204D10469002C07D10D4A05E012
:101D4000002C04D10469002C00D07F228A8300215A
:101D5000C16622229A72197201688A6832438A60C7
:101D600000680168FF22213211430160002070BD2C
:101D7000022070BDFF0100007047FFB50646044613
:101D80006036707A83B00D46202858D1002D0CD0D3
:101D90000598002809D00120A1680003814207D1DD
:101DA0002069002804D1E80702D0012007B0F0BD67
:101DB000307A012843D0012030720020E0662120D3
:101DC0007072FEF795FF01902746403705983882DC
:101DD0000598788218E0788A401E788206980090EC
:101DE000002280212046019B02F02DFF002818D1FF
:101DF0000120A1680003814202D12069002812D08D
:101E00002168287808856D1C788A0028E3D1069817
:101E10000090002240212046019B02F014FF002880
:101E200008D00320C2E728882168C005C00D0885B6
:101E3000AD1CE9E72020707200203072B6E7022066
:101E4000B4E770478021084300B50549487005484C
:101E5000007808700020886601F042F800BD00009C
:101E6000B0180020E4000020F0B51B480021827863
:101E7000C3781202D5180279407912021418281971
:101E80001E2803D90320FFF7DDFFF0BD124803220F
:101E9000D0384270114A1278027001228266002204
:101EA0008270821CC31C9C4610E06B180A26734388
:101EB0000B4E876EF35A1E0ABE54866E6746F35564
:101EC000836E9B1C83665B1E8370491CA142ECD30E
:101ED00001F006F8F0BD000080190020E4000020A9
:101EE0001A010020F0B5234800228678C178330219
:101EF0008C465C18057941792B025B18E0181E2886
:101F000003D90220FFF79EFFF0BD1A481027D038F2
:101F10004770194F3F7807700427876686706646BA
:101F2000C6700571134F4171144D1BE05000C0196C
:101F3000C179007A09020818A1180A2671438C4653
:101F400049190E7AF60712D04E88864205D3C98801
:101F5000814202D86146685202E00320FFF772FF17
:101F6000521CD2B29A42E1D300F0BAFFF0BD022077
:101F7000F4E7000080190020E40000201A0100208E
:101F8000F0B51A4800218278C3781202D518027978
:101F900043791202D41803460622D03B5A70144AE1
:101FA00012781A7004229A661E2D01D3022017E0BF
:101FB0000A2255430F4AAE18377AFF07F6D07788C2
:101FC000A7420CD3F688A64209D8545342185C188D
:101FD000491C9278C9B2A2700429F7D302E0032009
:101FE000FFF730FF00F07CFFF0BD000080190020FB
:101FF000E40000201A01002038B5084CCB18657D9C
:102000008218012D07D001256575DBB2D2B200958B
:10201000FEF72DFA38BD0025F6E700000800002085
:10202000FEE701688A69D243920701D400228A62DE
:1020300000688169C943C90703D08169012211433E
:1020400081617047F7B5044600680E468069C04359
:10205000C0062CD420272546403520688069C0431F
:1020600080060FD5701CF8D0002E05D0FEF740FE7C
:102070000299401AB042F0D96F700020A870287001
:102080000320FEBD21681020C8612068C76120467A
:10209000FFF7C7FF20684168064A114041600420ED
:1020A00060646F700020A87028700120FEBD0020C1
:1020B000FEBD000000E800FEF8B50446012016460B
:1020C00040031D46DAB2C3020090079F204600F08D
:1020D0007DF83A462046069900F0D5F8002803D04E
:1020E000606C04281BD018E02846F5B2012809D0FE
:1020F0002168300A88623A462046069900F0C3F803
:102100000028EDD1206885620097002280212046BA
:10211000069B00F06DF8002800D00320F8BD0120D8
:10212000F8BD000030B597B018221CA110A8FEF72A
:102130003CF810A8FEF76BF8002582B2ED432B4661
:1021400010A91C48FFF719FE00246004010C0A23A3
:1021500001221948FEF776FE002811D02B460122F5
:1021600016A11448FFF709FE641CA4B2802CECD31E
:102170002B46022212A10F48FFF7FFFD17B030BD1A
:10218000234610A24021684602F0E4FD6846FEF7AF
:102190003EF882B22B466946E3E700005363616E66
:1021A0006E696E6720493243206275732E2E2E0DA4
:1021B0000A0000000C030020800200202E00000016
:1021C0000D0A0000307825303258000070B50568DF
:1021D000049C68688905890D1204044E1143194353
:1021E000304021430143696070BD0000009800FC4D
:1021F000F8B51C4617460E46054611E0601C0FD088
:10220000002C05D0FEF774FD0699401AA04207D9AC
:102210002020403568700020A87028700320F8BD89
:10222000286881693046884304D00020B842E5D050
:102230000020F8BD0120F9E770B516460D460446AA
:102240001AE0324629462046FFF7FCFE002801D05E
:10225000012070BD002D04D0FEF74AFD801BA8426E
:102260000AD9616C20200143616440346070002011
:10227000A0702070032070BD20688069C043800674
:10228000DFD4002070BD70B516460D4604461CE034
:10229000324629462046FFF7D5FE002801D001200E
:1022A00070BD681C11D0002D04D0FEF721FD801BED
:1022B000A8420AD9616C20200143616440346070F7
:1022C0000020A0702070032070BD20688069C0438A
:1022D0008007DDD4002070BD10B500F033FB00F0A6
:1022E00027FB10BD10B50349087000F059FB00F042
:1022F0004DFB10BDE400002010B594B01422164927
:102300006846FDF752FF0021684603F000F8134CC1
:10231000114920631422143105A8FDF746FF00215E
:1023200005A802F0F4FF0C496063142228310AA8C2
:10233000FDF73BFF00210AA802F0E9FF0649A06370
:1023400014223C310FA8FDF730FF00210FA802F046
:10235000DEFFE06314B010BD045E0008080000203A
:10236000F0B587B014216846FDF746FF2248426960
:10237000012149040A43426142690A4005924269C7
:1023800049000A43426140699124084005902401B4
:10239000092000222146C006FEF7A3FC174E184F65
:1023A000002231463846FEF79CFC009400240125AB
:1023B0000920019502946946C0060394FEF7E8FBE4
:1023C000104800900194694602943846FEF7E0FBFD
:1023D000029469463846009601950394FEF7D8FBAF
:1023E000E80300900920019469460294C006FEF7B4
:1023F000CFFB07B0F0BD00000010024004C0000099
:10240000000400487A30000010B5134811490160FB
:1024100012494160002181600161416181610122B5
:10242000C161C2600162FEF7B3FC002801D0FEF773
:1024300015FA00210848FEF761FC002801D0FEF7DC
:102440000DFA00210448FEF77EFC002801D0FEF7BB
:1024500005FA10BD00580040800200201A09102023
:1024600010B5084806490160042141600649C16071
:102470008160FEF751FE002801D0FEF7EFF910BD94
:1024800000300040EC030020FF0F000010B50A48A8
:10249000084901603021416000217D22D200816025
:1024A000C2608161FFF7E2F9002801D0FEF7D6F99A
:1024B00010BD000000100040CC02002010B50C48F8
:1024C0000A4901600B490C220968416000218160C2
:1024D000C16001618161C161016242614162FFF7D6
:1024E00077FB002801D0FEF7B9F910BD0038014094
:1024F0000C0300200000002010B50C480A490160C0
:102500004B21C901416000218160C160016181618D
:10251000C1610C22016242614162FFF759FB002850
:1025200001D0FEF79BF910BD004400407C03002061
:10253000F8B5154C00252571144FE5706570022122
:102540003846FEF7C9FB012600280AD0A583E670AD
:102550006670002003F0E4F803F078F9C82002F078
:10256000C1FE012109033846FEF7B6FB00280AD058
:10257000A58326716670002003F0D2F803F066F997
:10258000C82002F0AFFEF8BD08000020000400489B
:1025900070B53D4C3D4D20882988884202D0288066
:1025A00000F0AEFB60896988884202D0688000F044
:1025B000A7FBA08AA988884202D0A88000F0A0FBCF
:1025C000324DE08BAD1F2988884202D0288000F070
:1025D00097FB208D6988884202D0688000F090FBCC
:1025E000608EA988884202D0A88000F089FBA08F65
:1025F000264C463CA18D884202D0A08500F080FB8D
:10260000214D218D4035E888884202D0208500F098
:1026100077FB288AE18B884202D0E08300F070FBD0
:10262000688BA17C884202D0A07400F069FBA88C62
:10263000E17B884202D0E07300F062FBE88DE17C30
:10264000884202D0E07400F05BFB1149288F0A69D0
:10265000904209D0002815D0642801D96420288729
:1026600080B2086100F04CFB0A498888002802D03B
:10267000074A143A1070C889002800D0A0840020AE
:10268000E07270BD0120EAE71A0100204E00002030
:10269000600200201A020020FFB5A04A83B05279E0
:1026A00000250C9E0D991F46002A06D0032A77D0DC
:1026B000042A76D00020994926E10599049B090453
:1026C0000A0E0599062BC9B202D0102B32D08CE02D
:1026D000924F0824FC61924B7B62924C062320703F
:1026E0006370A270E1703188090A217131786171DB
:1026F00039462431FDF75CFF394660782431FDF717
:1027000057FF3946A0782431FDF752FF3946E0786B
:102710002431FDF74DFF394620792431FDF748FF7C
:10272000394660792431FDF743FFB88CA071000A67
:10273000E0715AE0794C7A4B63627B000193093374
:10274000E361784C102320706370A270E170002167
:10275000217167717149019BA3712431FDF728FF35
:102760006E4960782431FDF723FF6C49A07824314D
:10277000FDF71EFF6949E0782431FDF719FF67492D
:1027800020792431FDF714FF644960792431FDF785
:102790000FFF6249A0792431FDF70AFF00241AE0F7
:1027A0002EE0B5E0A100705A63000004020E5D48FF
:1027B00018180090C2710098715C01725749104658
:1027C0002431FDF7F5FE00985449007A2431FDF7D5
:1027D000EFFE641CE4B2BC42E4D350485149019A74
:1027E000808C5118C871000A08724C4CE069FEF7E1
:1027F00019F80320607100204B49E062087084E002
:10280000464AD26A8A4202D9444904224A71FDF7F3
:10281000E1FE032879D1434900206C39434A886698
:10282000107808705078487002208B1C3E4A009344
:1028300012780FE03D490B5C3A496C398C6E009977
:1028400063543849374B6C39896E6C3B491C401CCA
:10285000C0B299669042EDD330493148314C48625C
:102860006C3C20782431FDF7A3FE2C49607824319C
:10287000FDF79EFEA06E801EA066002407E027499B
:10288000001980782431FDF793FE641CE4B22548DA
:102890006C38816EA142F2D8816E009A8B5CC21CAA
:1028A000895C09025A181D494B6A9A422DD1427817
:1028B000062A02D0102A25D111E08278C3781202AC
:1028C000D218037940791B021818049B062B19D1E2
:1028D000059B934216D13268824210D012E0827872
:1028E000C3781202D218037940791B021818049B8E
:1028F000102B07D1059B934204D1B84202D1012588
:1029000001E002E0002500204871284607B0F0BD34
:1029100002490020044AC8621070F5E7E400002074
:10292000FFFF0000C41A0020160100208C1B0020AD
:1029300003484178002901D101214170704700000E
:10294000140100207047000001B506480068C16905
:102950000906FCD50A23012269460248FFF70DFA51
:1029600008BD00007C03002070B50C46054600F051
:1029700098F804E028786D1CFFF7E6FF641E002C31
:10298000F8D100F096F8012070BD000003484178AE
:10299000002901D10121417070470000140100207D
:1029A0007047000001B506480068C1690906FCD5FA
:1029B0000A23012269460248FFF7DFF908BD00003B
:1029C0000C03002070B50C46054600F059F804E0F1
:1029D00028786D1CFFF7E6FF641E002CF8D100F08C
:1029E00057F8012070BD70478307FF22DB0E9A4025
:1029F0008907090E994000280BDA0007000F0838F4
:102A0000830808489B001818C36993430B43C361AC
:102A10007047830804489B001B18186890430843BC
:102A20001860704700ED00E000E400E010B5124CC3
:102A30006078002801D001F02BFF00F003F900F0CE
:102A4000F9F800280ED00D4822780178914209D17A
:102A50004078032807D0062808D0102809D006207F
:102A6000FFF7F0F910BDFFF7FFF910BDFFF788FA87
:102A700010BDFFF737FA10BDE400002080190020D8
:102A800010B501220920D102C006FEF72AF910BDB7
:102A900010B5012109200022C902C006FEF721F964
:102AA00010BD10B5092001221021C006FEF719F94A
:102AB00010BD10B5092000221021C006FEF711F943
:102AC00010BD000070B5384802F006FE374CA085F6
:102AD0003548001D02F000FE20853348083002F022
:102AE000FBFDE08330480C3002F0F6FD254646350C
:102AF00028802D48103002F0EFFD68802A481430FD
:102B000002F0EAFDA8802848183002F0E5FDAD1F6C
:102B1000288025481C3002F0DFFD688022482030E4
:102B200002F0DAFDA8802048243002F0D5FD607460
:102B30001D48283002F0D0FD20741B482C3002F0D4
:102B4000CBFDA0741848303002F0C6FDE073164883
:102B5000343002F0C1FDE0741348383002F0BCFD9F
:102B6000134DA86010483C3002F0B6FDE8600E48F6
:102B7000403002F0B1FD28610B48443002F0ACFD5A
:102B800068600948483002F0A7FD688006484C306C
:102B900002F0A2FD2946143108610348503002F0CA
:102BA0009BFD207570BD000000FC0008080000209F
:102BB0004C0200201C491D480A8802804A88428134
:102BC000898881821849891F0A88C2834A880285B8
:102BD00089884186144946398A8D82870A8D40301A
:102BE000C280CA8B02828A7C4283CA7B8284C97C6F
:102BF000C1850F49098A01870D49403014394A8837
:102C000042808A688281120CC282CA680284120CD5
:102C100042850A698286120CC28749684030018168
:102C2000090C4182704700004E0000201A0100206C
:102C30006002002002490022C878CA707047000074
:102C4000E4000020F0B5FDF7FDFC274CA51C03288F
:102C500023D1264E274930782070254A4A61143105
:102C6000FDF7A6FC2349707860701431FDF7A0FCD5
:102C700000272149A76602200A7808E01B4BA66EB0
:102C80001B5C7355A36E5B1C401CC0B2A3669042D4
:102C9000F4D31848022282700F70FDF7C1FC154E64
:102CA000B07802281ED1A06E02281BD3801E0027F8
:102CB000A06607E00F49E01980781431FDF778FC31
:102CC0007F1CFFB2A06EB842F4D80749425DC91C10
:102CD000405C716900021018884201D10120F07037
:102CE0000020B070F0BD000080190020281B0020DB
:102CF000FFFF0000E40000201401002070470000E6
:102D000070B5454C454EA28D3146454802F04AFF0C
:102D10004348228D3146001D02F044FF4048E28BBB
:102D20003146083002F03EFF25463D4846352A88A8
:102D300031460C3002F036FF39486A88314610308F
:102D400002F030FF3648AA883146143002F02AFFDC
:102D50003348AD1F2A883146183002F023FF30482F
:102D60006A8831461C3002F01DFF2D48AA88314682
:102D7000203002F017FF2A48627C3146243002F0EE
:102D800011FF2748227C3146283002F00BFF2448EF
:102D9000A27C31462C3002F005FF2148E27B31460F
:102DA000303002F0FFFE1E48E27C3146343002F043
:102DB000F9FE1C4D1A4831463830AA6802F0F2FE7E
:102DC000174831463C30EA6802F0ECFE14483146C0
:102DD00040302A6902F0E6FE1148314644306A6804
:102DE00002F0E0FE0E486A883146483002F0DAFE12
:102DF0002846143002690A4831464C3002F0D2FEAF
:102E00000748227D3146503002F0CCFEFFF7D2FE5B
:102E1000FDF752FC70BD0000080000200000010812
:102E200000FC00084C020020F8B52B4C0025257151
:102E30002A4FE5700121657049033846FDF74CFFC4
:102E40000126002806D0A07800280FD0A570C82041
:102E500002F048FA02213846FDF73EFF00281BD059
:102E6000A583A078002806D0E67012E0A583FDF7C0
:102E70006FFDA670EBE766702078401C2070002084
:102E800002F04EFC02F0E2FC2078122801D9022068
:102E90002070C82002F026FA012109033846FDF708
:102EA0001BFF002816D0A583A078002801D026712A
:102EB0000DE066702078401E2070002002F030FC8B
:102EC00002F0C4FC2078022801D212202070C82011
:102ED00002F008FAF8BD00000800002000040048D5
:102EE00005484178002901D0002070470021816009
:102EF0000121417008467047E400002070B5FDF7DD
:102F0000CFFA214C607800283BD12048FDF786F9A4
:102F1000C2B222761EA11D4801F036FF05212D20E8
:102F200002F08EFC20781C4D052805D106CD01232A
:102F30001AA0083D02F010FD2078062805D106CD24
:102F4000012318A0083D02F007FD2078072805D1CD
:102F500006CD012315A0083D02F0FEFC14212D2012
:102F600002F06EFC06CD012312A002F0F5FC262132
:102F70002A2002F065FC1148012306C8034802F02C
:102F8000EBFC0020607070BD08000020740200207F
:102F9000257520544C000000CC0000204F555420D3
:102FA000310000004F555420320000004F5554208E
:102FB00033000000436F756E74000000D4000020E1
:102FC00008B5FDF779FBBD4CBD4F0026607B00289E
:102FD00075D1BC4D08212846FDF77EFE00281CD186
:102FE000142002F07FF908212846FDF775FE00281D
:102FF00013D1C82002F076F908212846FDF76CFEAF
:1030000000280AD0B0480178491C017001202073C3
:10301000E6846684962002F065F910212846FDF7C3
:103020005BFE00281AD1142002F05CF9102128461A
:10303000FDF752FE002811D1C82002F053F91021EB
:103040002846FDF749FE002808D00120607126734C
:10305000E17B012909D0642002F044F920212846AF
:10306000FDF73AFE002808D022E097490A78521C62
:103070000A702073E6849620EEE7142002F032F9FD
:1030800020212846FDF728FE002811D1C82002F093
:1030900029F920212846FDF71FFE002808D001202D
:1030A000A0712673E17B01290AD0642002F01AF98D
:1030B00040212846FDF710FE002809D023E0CEE08D
:1030C00081490A78521C0A702073E6849620EDE745
:1030D000142002F007F940212846FDF7FDFD0028E5
:1030E00011D1C82002F0FEF840212846FDF7F4FD7A
:1030F000002808D00120E0712673E17B012906D069
:10310000642002F0EFF8E07C002808D011E06E495E
:103110000A78521C0A702073E6849620F1E7207A20
:10312000617A0843A17A084303D06671A671E671FB
:1031300092E0607900282DD0604840300588002D4D
:1031400028D0614908780090A84223D32946FDF78A
:1031500005F85D4945438A6851195B4A9160574AB1
:1031600046321288424355484C3002800098564AF5
:10317000401B107001202072668466851046C0686E
:103180000918104602694088101809184E48416015
:10319000FFF7B6FDA07900282DD04848403045887B
:1031A000002D28D0484908780090A84223D329460A
:1031B000FCF7D4FF44494543CA685119424AD160DB
:1031C0003E4A4632528842433C484C304280009846
:1031D0003D4A401B1070012060726684668510466F
:1031E000806841181046026940881018091836484E
:1031F0004160FFF785FDE07900282DD02F48403051
:103200008588002D28D0304908780090A84223D323
:103210002946FCF7A3FF2C4945430A6951192A4A5C
:103220001161264A46329288424324484C308280BB
:103230000098254A401B10700120A07266846685A4
:1032400010468268C06810181F4A528889184118B1
:103250001D484160FFF754FD6671A671E671207A42
:103260000025002800D00125607A002801D0022026
:103270000543A07A002801D004200543607B002884
:1032800001D008200543A08C01280BD10E48866090
:10329000C660066146804660FFF732FD0848A68496
:1032A0004030C6817D87E07A002801D0FFF770F9B1
:1032B000FFF7BCFB012002F015F887E608000020AC
:1032C000DA010020000400484C020020FFF7D8FB80
:1032D000052002F007F8FEF725FFFFF7D9FB02F003
:1032E00031FA002002F01CFA0A21342002F0A8FA78
:1032F000FE48012306C8FEA002F02EFBFD4C062767
:1033000028212770084602F09BFA06CC0123FAA078
:10331000083C02F021FB02F099FA07262670F948D2
:1033200001F0E0FF002002F0FBF902F08FFAF64D09
:1033300028782E287ED243007B449B885B009F44E4
:103340002D00870026014701680189019901A90123
:10335000B9010F022A027502BC0227037503B303E9
:10336000EF03A304E604790079007900790079007D
:103370007900790079007900790079007900790085
:103380007900790079007900790079007900790075
:1033900030054F058605A505C605E805FFF7C8F801
:1033A0002879002801D0282028706878002844D186
:1033B000287D002805D1D548D5A10278283001F014
:1033C000E3FC287D012805D1D048D3A1027828301C
:1033D00001F0DAFC287D022805D1CC48D0A1027882
:1033E000283001F0D1FC0521282002F029FACE482E
:1033F000012306C8C548283002F0AEFA1C21282057
:1034000002F01EFAC848012306C8C8A002F0A4FAB8
:103410002D21282002F014FABC48C6A142682830A9
:1034200001F0B2FCC048012306C8B848283002F0B9
:1034300093FA00E086E002F009FA287A697A0843F4
:10344000A97A08437ED02D2028700020A883E9E3C4
:103450000020A88301214903B748FDF73DFC00285F
:1034600020D00020A883FDF773FAA87B002808D09D
:10347000A649283109182039CA7F302A01D158229B
:10348000CA77401C0006000EA87308D09F49283157
:1034900008182038C17F582901D13021C177C820B0
:1034A00001F020FF0221A448FDF716FC002810D0EF
:1034B000A97B00290AD09548283041182039C87FB7
:1034C0000246303A092A01D2401CC877C82001F0D0
:1034D00009FF012109039848FDF7FEFB002810D0E1
:1034E000A97B00290AD08948283041182039C87F93
:1034F0000246313A082A01D8401EC877C82001F098
:10350000F1FE05212D2002F09BF98C48012306C80D
:103510008BA002F021FA1421322002F091F98748A1
:10352000012306C888A002F017FA2D212B2002F0F3
:1035300087F98248012306C87448283002F00CFA43
:10354000724800E0F8E32830017858291ED041780D
:103550005829FBD081785829F8D0C0785828F5D060
:103560006A482830FCF75AFEE98B80B2884202D0C4
:10357000298C88420AD10020A873FDF7E9F90020C0
:1035800002F0CEF802F062F902202870FEE35E48F5
:103590003C2146300088FCF7E1FDC2B2AA755B48C9
:1035A000E9750B4669A1283001F0EEFB5748283039
:1035B0008178202901D13021817001F0E1F8A87DC6
:1035C0003C2148435049EA7D463180180880DDE7B8
:1035D0004D483C2146304088FCF7C0FDC2B2AA7578
:1035E0004A48E9750B4659A1283001F0CDFB474800
:1035F00028308178202901D13021817001F0C0F874
:10360000A87D3C2148434049EA7D463180184880E6
:10361000BCE73D483C2146308088FCF79FFDC2B2A4
:10362000AA753A48E9750B4648A1283001F0ACFB71
:10363000364828308178202901D13021817001F06D
:103640009FF8A87D3C2148432F49EA7D46318018E8
:1036500088809BE72C483FA1403002782B482A768F
:10366000283001F091FBFFF749FC2748297E4030C4
:1036700001808BE7244837A14030827823482A769E
:10368000283001F081FBFFF739FC1F48297E4030CC
:1036900041807BE71C482FA1403002791B482A76E5
:1036A000283001F071FBFFF729FC1748297E4030D4
:1036B00081806BE73C21288DFCF750FDC2B2AA75D2
:1036C0001248E9750B4621A1283001F05DFB0F4837
:1036D00028308178202901D13021817001F050F803
:1036E000A87D3C214843E97D401837E0D400002004
:1036F00057504300CC000020562E3433322D324D2B
:103700000000000088130000080000204C02002088
:10371000253264544C0000002532644A54000000F5
:103720002532642400000000DC000020534146459F
:10373000000000002534640000040048C40000209C
:1037400055534552000000004B45590025753A2558
:1037500032750000257520544C000000288515E7BF
:103760003C21A88DFCF7FAFCC2B2AA75E9750B469C
:10377000FD49FE4801F008FBFC488178202901D171
:103780003021817000F0FCFFA87D3C214843E97D99
:103790004018A885FAE2F449EA8B1839F34801F099
:1037A000F3FAF2480178202901D1302101704178E3
:1037B000202901D1302141708178202901D1302187
:1037C0008170C178202901D13021C170FCF768FED9
:1037D0006878002821D105212A2002F031F806CC92
:1037E0000123E3A0083C02F0B7F81421372002F0CF
:1037F00027F8DD4806CC0123001F083C02F0ACF896
:103800002D212B2002F01CF8A87B00280CD00123CE
:10381000D94806C8D54802F09FF800206870D34800
:10382000FCF7FCFCE883EBE30023F1E76A7CD3A11F
:10383000CE4801F0A9FACD480178202901D13021E4
:1038400001704178202901D13021417081782029EF
:1038500001D13021817000210171FCF721FE6878CF
:10386000002827D105212B2001F0EAFF06CC0123F7
:10387000C3A0083C02F070F814212B2001F0E0FFF7
:1038800006CC0123C0A0083C02F066F82D212B20B5
:1038900001F0D6FFA87B00280AD00123B64806C84D
:1038A000B24802F059F8B148FCF7B8FC6874E8E196
:1038B0000023F3E700206870A4E3FFF7B5FAE87887
:1038C000002802D0287C401C28742879002802D0C7
:1038D000287C401E2874287C01460A39F52901D22B
:1038E000002002E0FF2801D1092028746878002810
:1038F000E0D10321282001F0A3FF277006CC01238B
:10390000A3A0083C02F028F826700F212F2001F018
:1039100097FF06CC0123A1A0083C02F01DF8287CEB
:10392000030001F045FA0A0609101316191D202399
:10393000272BFF222D3201E04B22D20099A18B4888
:1039400001F022FA1CE04B22120107E04B22520147
:1039500004E04B22920101E04B22D20193A1EEE759
:103960004B22120204E04B22520201E0E122120239
:1039700090A1E4E7E12252028FA1E0E7052028743C
:10398000A87800287DD00020687528212A2044E0EE
:10399000FFF74AFAE878002802D0A87C401CA874F7
:1039A0002879002802D0A87C401EA874A87C012891
:1039B00001D9002002E0FF2801D10120A874687815
:1039C000002895D10321282001F03AFF06CC0123DD
:1039D0007AA0083C01F0C0FF0F21282001F030FF41
:1039E00006CC012377A0083C01F0B6FFA87C002894
:1039F00008D0012808D00020A874A878002808D092
:103A0000002007E071A100E072A1584801F0BCF964
:103A1000F3E7012068752821084601F011FF06CC64
:103A20006B7D5248083C01F097FF2AE1FFF7FCF953
:103A3000E878002802D0E87B401CE8732879002849
:103A400002D0E87B401EE873E87B012801D9002002
:103A500002E0FF2801D10120E87368780028B0D186
:103A60000321282001F0ECFE06CC01235BA0083CDA
:103A700001F072FF27700F21282001F0E1FE0123E1
:103A800000E042E106CC57A0083C01F065FF26703B
:103A9000E87B002804D0012804D00020E8736FE7F9
:103AA00053A12CE154A12AE1FFF7BEF9E8780028E0
:103AB00002D0E87C401CE8742879002802D0E87C19
:103AC000401EE874E87C012801D9002002E0FF28AC
:103AD00001D10120E87468780028C0D12770032143
:103AE000282001F0ADFE06CC012345A0083C01F0E2
:103AF00033FF0F21282001F0A3FE06CC012343A0B1
:103B0000083C01F029FF2670E87C002804D0012839
:103B100004D00020E87433E73EA1F0E03FA1EEE0DE
:103B2000124816A114380269143001F02DF90F481B
:103B30000178202901D1302101704178202901D15B
:103B4000302141708178202901D1302181700021FC
:103B50000171FCF7A5FC68780028BED105212B2057
:103B600001F06EFE01235EE04C3700087402002075
:103B70004348414E47450000C400002025336400FF
:103B80004D2D4275730000004144524553530000CF
:103B9000424155445241544500000000534554559C
:103BA0005000000020202025640000002020256413
:103BB00000000000202564002564000054494D45A4
:103BC00000000000414444494E470000204E4F2071
:103BD00041444400594553204144440053595354EF
:103BE000454D000052554E204D4F44450000000009
:103BF0004D4F4445203100004D4F444520320000D8
:103C000046554E4354494F4E000000004F55545006
:103C10005554530053494E474C450000204D554CD8
:103C200054490000E8E106CCFDA0083C01F094FEF8
:103C300014212B2001F004FE277006CC0123FAA0EA
:103C4000083C01F089FE2D212B2001F0F9FD2670A2
:103C5000A87B00280FD00123F64806C8F64801F0DB
:103C60007BFEF548FCF7DAFAF34914390861642859
:103C700003D9642004E00023EEE7002801D10120ED
:103C8000086101F0E3FD15E6FFF7CEF8E8780028BB
:103C900002D0287D401C28752879002802D0287D74
:103CA000401E2875287D022823D8FF2821D0687857
:103CB0000028E8D126700321282001F0C1FD06CCA0
:103CC0000123DEA0083C01F047FE0F21282001F06F
:103CD000B7FD06CC0123DBA0083C01F03DFE287DAA
:103CE000002809D0012809D002280CD0002028750E
:103CF00046E600202875DAE7D4A100E0D5A1CE4839
:103D000001F042F83CE6D5A1F9E701203CE6FFF7D7
:103D10008BF868780028B6D1267003212B2001F09B
:103D20008FFD06CC0123C5A0083C01F015FEA87844
:103D3000002802D0002001E0C0E0012068752321A6
:103D40002B2001F07DFD06CC6B7DC6A0083C01F068
:103D500003FE01F07BFDA878002894D023212B20BE
:103D600001F06EFD06CC6B7DC0A0083C01F0F4FDB7
:103D700001F06CFDB048002128388160C16001610C
:103D800041804160FEF7BCFFC82000E038E101F04F
:103D9000A9FA002001F0C4FC01F058FD00202870B1
:103DA00088E5FEF7C5FBE878002801D000202870E0
:103DB0002879002801D029202870687800287DD132
:103DC0009D48ACA128388268283000F0DDFF03212F
:103DD000282001F035FDA848012306C8A7A01DE052
:103DE000FEF7A6FBE878002801D028202870287963
:103DF000002801D02A20287068780028DFD18E485A
:103E00009CA12838C268283000F0BEFF032128207A
:103E100001F016FD9848012306C89AA001F09CFD08
:103E200027701921282001F00BFD06CC012397A053
:103E3000083C01F091FD2D21282001F001FD06CC68
:103E400001237D48083C01F087FD2670D8E0FEF78D
:103E50006FFBE878002801D02920287028790028F5
:103E600001D02B2028706878002827D1724881A1C2
:103E700028380269283000F087FF0321282001F04C
:103E8000DFFC7D48012306C883A0C7E7FEF750FB8F
:103E9000E878002801D02A2028702879002801D04D
:103EA0002C2028706878002808D1634871A1283830
:103EB0004288283000F068FF032100E094E02820C9
:103EC00001F0BEFC06CC012375A0083CA6E7FEF776
:103ED0002FFBE878002801D02B20287028790028B3
:103EE00001D000202870687800287DD1524861A157
:103EF00028384268283000F047FF27700321282027
:103F000001F09EFC06CC012367A0083C01F024FDD3
:103F100087E7FEF70DFBE878002801D00020287025
:103F20002879002801D0002028706878002855D111
:103F30000321282001F084FC277006CC01235DA01A
:103F4000083C01F009FD1421282001F079FC2B7AAE
:103F5000012006CC43405AA0083C01F0FDFC594822
:103F600059A10288344800F00FFF06CC01233248E3
:103F7000083C01F0F1FC2321282001F061FC6B7A60
:103F8000012006CC434052A0083C01F0E5FC4D481E
:103F90004DA14288284800F0F7FE06CC01232648B0
:103FA000083C01F0D9FC3221282001F049FCAB7A11
:103FB000012006CC434047A0083C01F0CDFC41481D
:103FC00041A182881C4800F0DFFE06CC01231A487C
:103FD000083C01F0C1FC267001F038FC287A697AAF
:103FE0000843A97A084300E00CE002D00020A8832F
:103FF00008E00020287001206870002001F090FB8C
:1040000001F024FCA87B052801D10020A8732D48CD
:104010004C38418BFF202D3081427DD3294D5BE010
:1040200053435245454E0000434F4E545241535462
:1040300000000000C4000020740200204D4F4E45D7
:10404000590000005459504500000000544C2054C1
:10405000595045004A5420545950450020242054BA
:1040600059504500434C45415200000055504441D1
:104070005445000025386400D40000204F555431C9
:10408000000000004F5554320000000050524943D8
:104090004520544C000000004F55543300000000F0
:1040A000464F5247455400004143515549524544FB
:1040B000000000004F55542054494D4500000000B9
:1040C00031000000540000202534642E736E00007F
:1040D00032000000330000004C3DA87B002861D076
:1040E00000216983030000F063FE055D041E2E4A73
:1040F0005D002878012805D00A2803D00B2801D0BC
:10410000102805D104230A223A212D20FDF774FF3F
:104110002878801E072800E014E043D804230A22F0
:104120003A212A200CE02878012805D00A2803D05B
:104130000B2801D0102835D104230A223A21372038
:10414000FDF75AFF2EE02878012805D00A2803D071
:104150000B2801D0102805D104230A223A2141203E
:10416000FDF74AFF2878811E022903D9082801D0CB
:10417000092817D104230A223A214120E0E72878B0
:10418000012801D00A2805D104230A223A214B2014
:10419000FDF732FF2878811E02290FD908280DD09B
:1041A00009280BD0012149032A48FCF795FD002876
:1041B00039D029480078002805D034E004230A22A9
:1041C0003A214B20BCE7002504E0642001F08AF886
:1041D0006D1CEDB2012149031E48FCF77DFD00284E
:1041E00001D01E2DF1D3012149031A48FCF774FDBB
:1041F000002818D01E2D16D3174901200870002062
:1042000001F08EFA01F022FB14A1164800F0BCFD6B
:10421000002501E010488583012149030D48FCF782
:104220005BFD0028F6D10C480F4A818B91420CD9D6
:104230000178002909D0002101708173084601F03E
:104240006FFA01F003FBFEF75BFD012001F04AF875
:10425000FFF76DF80004004808000020585858582F
:104260000000000074020020983A00001CB5FEF720
:1042700033F800254D4C07204D4E2060707B002800
:1042800001D0042067E0F08C4A4988420AD9307B8B
:10429000002807D1F0842068032801D0032000E023
:1042A00005202060414814380078002832D0317B46
:1042B00000291AD0317A727A1143B27A114314D09C
:1042C000F18C3D4A91420ED2317D002904D0012962
:1042D00004D0022905D008E0022100E01421216069
:1042E00003E01521FBE700213173317A002911D158
:1042F000717A00290ED1B17A00290BD1317D0029C4
:1043000004D0012904D002292BD003E0022100E0CF
:1043100014212160E060317A307B814306D024494A
:104320004C31098861600121A1602160717A81436B
:1043300007D01F494C31498861600221A1600121E9
:104340002160B17A814307D019484C308088606081
:104350000320A06001202060002D04D0012D15D184
:1043600008E01521D5E764200423002210210094E1
:10437000019007E00D4864211030012306220191CD
:10438000009011460120FEF787F907460B48007898
:10439000042801D0012F01D16D1CEDB2012D00D9EF
:1043A00000250A2000F09EFF68E700006002002060
:1043B00008000020B80B0000DC050000E900002028
:1043C0000EB5FEF74DF8924D01279048FF030026E9
:1043D0002C464C3C00908F48FCF7D0FE207A0028F9
:1043E00033D02888029000282FD0608D218D8842FC
:1043F0002BD3A07C012819D1874800780190002890
:1044000014D08348801F008800280FD080490C39C1
:10441000098800290AD0FBF7A1FE019A7E49504382
:10442000029A801828800198401E08702888401E33
:104430000004000C28800099888306D1012126728F
:10444000002289037548FCF74CFC607A002832D0C2
:104450006888029000282ED0608D218D88422AD352
:10446000A07C012819D16C4800780190002814D054
:104470006748801F408800280FD065490C3949885B
:1044800000290AD0FBF76AFE019A63495043029A59
:10449000801868800198401E08706888401E0004DB
:1044A000000C68800099C88405D1667200223946E4
:1044B0005A48FCF716FCA07A002834D0A88802904D
:1044C000002830D0608D218D88422CD3A07C01281B
:1044D00019D1514800780190002814D04C48801F11
:1044E000808800280FD04A490C39898800290AD0D1
:1044F000FBF734FE019A48495043029A8018A8807D
:104500000198401E0870A888401E0004000CA88076
:104510000099088607D1FF210920A67200220131E7
:10452000C006FCF7DEFB09203946C006FCF7D4FBC9
:10453000002839D00121002289033848FCF7D1FB3B
:10454000002239463548FCF7CCFBFF210920002228
:104550000131C006FCF7C5FB26726672A6722E807A
:104560006E80AE80668501206073608C401C80B2D6
:104570006084A18D884212D32748017800290ED08B
:104580004288511889B2418026730670C3688268D8
:10459000D2180369591851184160FEF7B1FB7D200C
:1045A000C00000F09FFE16E76673207A617A02462B
:1045B0000843A17A0843D8D06684608D401C80B23D
:1045C0006085218D884206D3002A04D00122910300
:1045D0001248FCF786FB608D218D884207D3607AF4
:1045E000002804D0012239460C48FCF77AFB608D84
:1045F000218D8842B9D3A07A0028B6D001220920A3
:104600001102C006FCF76DFBAFE70000DA010020E5
:1046100054000020EC0300204C020020000400485D
:1046200010B5FCF7B3FD00F06AFE10BD70B594B094
:1046300030216846FBF7E0FD00240E94139410200F
:104640000994022504900D940F94052012940126DC
:104650000095C0040C94109403960A901194089548
:104660000B946846FCF73EFF07200C900E94012146
:104670000D950F940CA8FCF74DFE03201290109698
:1046800010A8FCF7D3FD14B070BD000013480168FA
:104690000122114301604168114A114041600168E3
:1046A000104A1140016001680122920491430160A7
:1046B00041683F22120491434160C16A090909011E
:1046C000C162016BFF22143291430163416B4908BF
:1046D00049004163002181607047000000100240E2
:1046E0000CB8FF08FFFFF6FE10B50248FDF7FEF814
:1046F00010BD0000CC020020F0B502681A4B1B4C24
:10470000984201D0A04203D17025AA434D682A43A4
:10471000174D184E184F98420AD0A04208D0174C97
:10472000A04205D0A84203D0B04201D0B84205D182
:104730001446032212029443CA6822438024A243EF
:104740004C69224302608A68C2620A6882629842A7
:1047500005D0A84203D0B04201D0B84201D10969C6
:10476000016301214161F0BD002C014000040040C3
:10477000004001400044014000480140002000404A
:1047800070B5FBF78DFE304C6078002858D12F486B
:10479000FBF744FD2D4DA075A81CFBF73FFDC3B2F0
:1047A000E375A27D2AA1284600F0EEFAA878202819
:1047B00001D13020A87005212D2001F041F820788A
:1047C000254D022805D106CD012324A0083D01F086
:1047D000C3F82078032805D106CD012321A0083D88
:1047E00001F0BAF82078042805D106CD01231FA0D6
:1047F000083D01F0B1F82078082805D106CD012345
:104800001CA0083D01F0A8F82078092805D106CDA4
:1048100001231AA0083D01F09FF81421322001F075
:104820000FF806CD012317A001F096F826212A20C3
:1048300001F006F81548012306C8044801F08CF879
:104840000020607070BD000008000020740200208D
:1048500025753A2532750000CC0000204F555420B4
:10486000310000004F555420320000004F555420B5
:10487000330000005354415254000000464F524749
:104880004554000054494D4500000000D40000206C
:10489000F8B51D4D1B4C1A48E0602E4628786C3642
:1048A000307001212161214600270C31FBF780FE89
:1048B000216968787054491C216121460C31FBF74D
:1048C00077FEA7600CE02818216980787054491C95
:1048D00021610C490C31FBF76BFEA068401CA06005
:1048E000A96EA0688142EED82069A1893154090AD5
:1048F000401C3154401C2061FBF7A2FF6770F8BDDB
:10490000FFFF0000E4000020B018002010B5818CEB
:10491000C90707D001684A6801235B049A43836A88
:104920001A434A60818C890707D501684A680123C8
:104930001B049A43C36A1A434A60818C490707D50E
:1049400001684A6801239B049A43036B1A434A6037
:10495000818C090707D501684A680123DB039A4364
:10496000436B1A434A60818CC90607D50268916877
:1049700001231B039943836B19439160818C890642
:1049800007D501688A6801235B039A43C36B1A4306
:104990008A60818C490612D503685A68012109058D
:1049A000046C8A4322435A60026C8A4207D102682F
:1049B000516803235B059943436C19435160818C13
:1049C000090607D501684A680123DB04806C9A4315
:1049D00002434A6010BD0021C1662022603042724D
:1049E000827201720846704710B5406A0022014683
:1049F00040314A834A82FDF760F810BD01680A68B9
:104A0000FF2321339A430A6001688A6852085200E2
:104A10008A60202160308172704710B501680A6891
:104A200040239A430A60202269210A54FDF709FABB
:104A3000002010BD70B50246403203466033948BAF
:104A40009D7A0168222D05D088690822104388616B
:104A5000022070BD898C012685683603B54202D1DB
:104A60000569002D0BD02140446D651C4565217002
:104A7000518B491E0904090C518307D015E0456D7F
:104A800021402980416D891C4165F1E701680A6870
:104A9000FF242134A2430A6001688A685208520048
:104AA0008A6020219972FDF767F9002070BD00002F
:104AB000F8B504462369A268E5691A4363691020C2
:104AC0002B43002125681A432B680E463E4F3B407E
:104AD00013432B6023685A6803252D03AA43E56816
:104AE0002A435A60236AA26925681A43AB680B27D8
:104AF0003F02BB431343AB60344A2568954210D153
:104B0000334A126B9207920F0ED0012A05D0022A67
:104B100005D0032A09D1022007E0042005E008207F
:104B200003E02C4A954200D100200122E369D20320
:104B3000934224D100280CD002280DD0042813D091
:104B4000082817D001260A0912010807400F104350
:104B50002FE0FCF77BFC09E061681F4A48088018D9
:104B6000FBF7FCFA81B2EEE7FCF780FC61684000DD
:104B70004A08F4E76168012248081204EFE70028B8
:104B800008D0022809D004280BD0082814D0012608
:104B90003046F8BDFCF75AFC05E061680F4A48084A
:104BA0000CE0FCF763FC61684A088018FBF7D6FA52
:104BB00080B22168C860EBE7616848088018FBF79D
:104BC000CDFA80B2E860E3E7F369FFFF0038014007
:104BD00000100240004400400024F40000127A005B
:104BE0006921095C212901D0022070470246403228
:104BF000518A002912D0012381681B03994202D1F6
:104C00000169002915D0C16C4B1CC3640068097888
:104C10000185508A401E50820020704701680A6852
:104C200080239A430A6000680168402211430160B2
:104C3000F2E7C16C03680988C905C90D1985C16C03
:104C4000891CC164E5E7FFB581B017460E460446EE
:104C50000A9D1DE0681C1BD0002D05D0FCF748F80C
:104C60000499401AA84213D920680168FF22A13292
:104C700091430160206881684908490081602020D3
:104C800060346072A07200202072032005B0F0BD75
:104C90002068C1693046884304D00020B842D9D08A
:104CA0000020F3E70120F9E710B5104C2068C06937
:104CB000800619D52046FCF701FF01220C49204649
:104CC000FDF716F80A480B4B0278001F01785A547A
:104CD000491CC9B200220170642900D90270216800
:104CE000202008620448026010BD00000C03002070
:104CF00018010020281B0020FC00002010B5104CDB
:104D00002068C069800619D52046FCF7D7FE01222D
:104D10000C492046FCF7ECFF0A490A48C91E0A4B19
:104D20008A78007898540020642A00D9887007494E
:104D300008600749086021682020086210BD000053
:104D40007C030020170100208C1B00200C01002098
:104D5000100100200FB41CB50246002007AC00294A
:104D60000BD0491E01910092064B6A4621460698D7
:104D700000F040F8009A002111701CBC08BC04B07F
:104D800018470000695200080FB410B504A9074B7A
:104D900002AA039800F02EF8044602A9002000F0B1
:104DA0006EFA204610BC08BC04B018477F520008B9
:104DB00030B47446641E2578641CAB4200D21D4694
:104DC000635D5B00E31830BC184700000048704783
:104DD0004802002002E008C8121F08C1002AFAD1C8
:104DE00070477047002001E001C1121F002AFBD16B
:104DF00070470000FFB591B00F460546002606E05B
:104E000025280AD0149A139990476D1C761C28788F
:104E10000028F5D1304615B0F0BD002400940121E2
:104E2000F34A029400E004436D1C2B780846203BB3
:104E300098401042F7D128782A280ED002212878ED
:104E40000246303A092A15D8009A0A235A43303AC2
:104E500080180C436D1C0090F1E701CF00900028F2
:104E600005DA0120400304430098404200900220EC
:104E700004436D1C28782E2815D10420044368783B
:104E80006D1C2A280AD101CF6D1C02900BE00299FB
:104E90000A225143303940186D1C0290287801468F
:104EA00030390929F3D928786C2810D006DC4C2831
:104EB0001AD068280ED06A2817D104E0742813D0BD
:104EC0007A2812D110E00120400504430CE00121B2
:104ED000090501E0032109050C436978814203D1EA
:104EE0000120000524186D1C6D1C287803906E2885
:104EF0001ED00CDC632831D004DC00288AD058286E
:104F000011D1B2E064287BD069280CD178E07328F5
:104F10002DD004DC6F2870D0702804D1A7E075284C
:104F20006CD078286BD0149A13999047761C62E065
:104F30006002400F022807D003280AD004283868EE
:104F40000AD006603F1D56E03868F11706604160E0
:104F5000F8E738680680F5E70670F3E738786946C1
:104F600008740020487404A80390012003E0386806
:104F700003900020C0433F1D61070FD5002101E0D1
:104F80000199491C029A0191914213DA8142F7DB9F
:104F9000019A0399895C0029F2D10BE0002101E01C
:104FA0000199491C01918142FADB019A0399895CBC
:104FB0000029F5D101990098139A401A00902146D2
:104FC000149B00F03BF901998019461807E00398FB
:104FD00003990078491C0391149A139990470198FA
:104FE000401E0190401CF2D12146149B139A009858
:104FF00000F014F986196D1C09E741E033E034E054
:105000000A200021049005916002410F022905D079
:1050100001CFC2179446032905D007E0FF1DFF0802
:10502000FF0003CF06E000B2C2179446042902D164
:1050300040B2C1178C4600226146944506DA0A4602
:105040000021404291418C462D2102E0210504D5EA
:105050002B216A461176012103E0E10701D02021CE
:10506000F7E7019154E00A200BE0102009E010203E
:10507000049000210420044308200591029003E0DD
:1050800008200021059104906002410F022905D0FB
:1050900001CF00229446032906D006E0FF1DFF0839
:1050A000FF0003CF8C4603E080B2042900D1C0B2D8
:1050B0000021019121072BD50399702906D0049A6C
:1050C0001021059B4A401A4305D00EE040216A4654
:1050D0001176012108E06146014306D030216A467D
:1050E00011760399517602210191049A0821059BBA
:1050F0004A401A430CD16146014301D1610707D5EB
:1051000030216A461176012101910299491E0291CE
:105110000399582904D037A103910FA90F910DE0ED
:1051200039A1F9E76146059B049AFBF784F8039BD4
:105130008C469B5C0F9A521E0F921370614601437E
:10514000F0D10F9807A9081A20300390600704D502
:10515000012000048443029801E001200290039999
:10516000884201DD401A00E00020411802900198B9
:1051700009180098401A0090E00306D42146149BB9
:10518000139A009800F05AF886190020049008E05D
:1051900006A9085C149A139990470498401C761C41
:1051A000049001998842F3DBE0030CD52146149B5F
:1051B000139A009800F042F8861904E0149A3020FF
:1051C00013999047761C0299481E02900029F5DC3D
:1051D00008E00F980F990078491C0F91149A1399C1
:1051E0009047761C0399481E03900029F1DCFBE6EA
:1051F00009280100303132333435363738396162AD
:105200006364656600000000303132333435363770
:10521000383941424344454600000000F8B5044691
:1052200000251E461746880404D405E03946202090
:10523000B0476D1C641EF9D52846F8BDFFB504467D
:10524000002581B01E46C80301D5302700E0202785
:10525000880404D505E038460399B0476D1C641EE8
:10526000F9D5284605B0F0BD4A68002A06D00A687C
:10527000531C0B6010704868401E486070470A68F5
:10528000531C0B6010707047FBF788FFFFF7CEF9D7
:10529000FDF766F8FDF7B8F8FDF710F9FDF72CF902
:1052A000FDF7F4F80948FCF715FB094801680A689E
:1052B000202002430A60074909680A6802430A601D
:1052C000FDF71AF800F016F8FEE70000CC02002007
:1052D0000C0300207C03002001460020842900D01C
:1052E000C81C704710B5002800D1012000F0E8FB71
:1052F000002010BD10B500F0FBFB002010BD10B564
:1053000000F0BCFC012801D000F07EFC10BD3EB5D1
:10531000044608200D46205EFFF7DEFF02A901913A
:105320000090208A2B4682B22168606800F07EFCE3
:10533000012801D000203EBD02983EBDF8B5134CB7
:105340000F46E66805462068001D00F01BFB681C40
:1053500007D1002F05D021680D48091D00F04AFB38
:10536000F8BD2068751945602168B54204D2A06B6C
:10537000091D00F027FBF8BD606B091D00F022FB42
:10538000A06A8542F7D2A562F8BD00006400002043
:10539000FC040020F8B5054600F038FB294CA06855
:1053A000401CA0602068284F002803D060690028B6
:1053B00027D02CE02560A068012828D100261420E1
:1053C0007043C01900F0F0FA761C072EF7D31E4880
:1053D0008C3000F0E9FA1C48A03000F0E5FA1A48D9
:1053E000B43000F0E1FA1848C83000F0DDFA164891
:1053F000DC3000F0D9FA14488C3060631430A063BC
:1054000005E02068E96AC06A884200D82560606AC1
:10541000401C6062E86A2169884200D92061142139
:105420004843C019291D00F0E5FA00F0FBFA606955
:10543000002806D02068E96AC06A884201D200F0DC
:1054400033FBF8BD640000202004002070B5114E2D
:10545000114C18E000F072FB3068002817D000F003
:105460007BFC00F0D3FAF068C568281D00F08AFACA
:10547000A068401EA0606068401E606000F0D2FA24
:10548000284600F00BF860680028E3D170BD00F0FA
:1054900063FCF8E7E80400206400002010B504462F
:1054A000006B00F0CDFA204600F0CAFA10BD0000F3
:1054B0007D210E484901420705D0C01DC0080B4A96
:1054C000C000821A891A0A4A0023411809C2083901
:1054D000C908C900183A11604B600B600B1A0AC06A
:1054E00093600120C0075360D06070471005002012
:1054F000B0000020044CFFF7A9FF20680128FAD96A
:1055000000F0D2FAF7E7000020040020FFB581B0D8
:105510000C9C9000236B001F1818C6080A9DF6000B
:10552000700701D072B6FEE723180A5C20331A75A3
:105530000A5C002A02D0401C1028F5D320464030D7
:1055400000270090C770072D00D30625E562A764E9
:10555000201D656400F033FA2046183000F02FFA61
:1055600024610720401B6462A061E764009807740F
:105570003046049A019900F09FF820600B980028AB
:1055800000D0046005B0F0BD30B5114900E011460F
:105590000A688242FBD34B685C18844203D140689E
:1055A00018184860084643681C18944209D1084CF2
:1055B000103C2468A24209D052689A1842600A68D6
:1055C00012680260814200D0086030BD0460F9E7D3
:1055D000B00000200648416B0968002905D0416BE6
:1055E000C968C9684968816270470021C943FAE700
:1055F0006400002003480068401C72B600D0FEE73B
:10560000FEE70000B8000020F8B50546002700F0CE
:1056100095FA284E3068002801D1FFF749FFF0685D
:1056200005423FD1002D3DD00835680708D06807F6
:10563000400F0821081A4519680701D072B6FEE725
:10564000002D2FD0706885422CD81A4810300146A2
:105650000C6801E020460C466168A94202D221682C
:105660000029F7D131688C421CD00768216801609D
:1056700060680837411B102908D96019420701D01A
:1056800072B6FEE741606560FFF77EFF6168706893
:10569000401A7060B268904200D2B060F068014376
:1056A000002003C400F058FB780701D072B6FEE773
:1056B0003846F8BDA000002010B50124031F2406C1
:1056C0001C601B1F1960191F024B0B6014394038F6
:1056D0000A6010BDF55500080068704770B5802855
:1056E00015D2402913D24D0701246D0F0A4BAC404F
:1056F000C9081E79C901094B0818002E02D0002ADA
:1057000006D001E0012A03D0195CA143195470BDF1
:10571000195C2143FAE70000BC000020B01400200F
:1057200010B50021064B01229202002805D0FF246B
:105730005C54491C9142F8D310BD0024F8E70000E6
:10574000B014002010B500F065F86420FBF768F98C
:10575000AE2000F0DDF8202000F0DAF8102000F094
:10576000D7F8B02000F0D4F8C82000F0D1F800201D
:1057700000F0CEF8102000F0CBF8402000F0C8F880
:10578000812000F0C5F8FF2000F0C2F8A12000F051
:10579000BFF8A62000F0BCF8A82000F0B9F83F2020
:1057A00000F0B6F8A42000F0B3F8D32000F0B0F871
:1057B000002000F0ADF8D52000F0AAF8F02000F0AD
:1057C000A7F8D92000F0A4F8222000F0A1F8DA20F0
:1057D00000F09EF8122000F09BF8DB2000F098F813
:1057E000202000F095F88D2000F092F8142000F0B1
:1057F0008FF8AF2000F08CF80020FFF791FF00F049
:1058000025F803480021018041800121417110BD2C
:10581000BC00002010B5094C002204212046FBF7F3
:1058200060FA0A20FBF7FCF8012204212046FBF76E
:1058300058FA0A20FBF7F4F810BD000000040048F5
:10584000014A108051807047BC00002070B50B4D9C
:1058500000242046B030C0B200F05AF8002000F01A
:1058600057F8102000F054F8E0014019802100F0B2
:1058700063F8641CE4B2082CEBD370BDB0140020B4
:10588000FFB581B021486A460188177AC919802975
:1058900004D24088567A8019402802D3002005B0EF
:1058A000F0BD002528E001993046203948434019D1
:1058B0004000039A0024105A00901AE00098A0407B
:1058C000000408D51148049A817800784919001914
:1058D000C9B2C0B20AE00498002815D000220B48D3
:1058E0008178007849190019C9B2C0B2FFF7F6FEF5
:1058F000641CA742E2D86D1CAE42D4D8034801888C
:10590000C91901800198CAE70122E8E7BC0000201C
:1059100001B584B000220121D24304A80B460292B3
:1059200001910090002278210248FBF719FB05B095
:1059300000BD0000800200200EB50022D24389B2D3
:105940000292019100900123402278210148FBF747
:1059500007FB0EBD80020020F0B51D460E4617461F
:1059600004460AE02B463A463146FFF789FF217884
:10597000884201D0C8B2F0BD641C20780028F1D163
:10598000C0B2F0BD4368826801699A60836842686A
:105990005A604A68824201D182684A6000220261EC
:1059A0000868401E086070470146083100224160C7
:1059B000D243C16082600161002101607047002113
:1059C0000161704730B50B685A1C02D0024608329C
:1059D00002E0026904E02246546825689D42FAD933
:1059E00053684B6099608A60516008610168491C86
:1059F000016030BD42684A6093688B60936859606B
:105A0000916008610168491C0160704772B60448E2
:105A10000168491C0160BFF34F8FBFF36F8F704760
:105A2000B800002005490868002804D0401E08601E
:105A300000D162B6704772B6FEE70000B8000020E1
:105A400070B500281AD004460D4D083C6068E9681E
:105A5000084201D172B6FEE72268002A01D072B670
:105A6000FEE78843606000F069F860686968401884
:105A700068602046FFF788FD00F06EF970BD0000F9
:105A8000A000002010B506487D21C9000068FAF783
:105A900065FB0449401E48610720086110BD0000F5
:105AA0006000002000E000E0012004490007486099
:105AB000BFF34F8FBFF36F8F7047000000ED00E022
:105AC00010B502000FD00948006B002801D072B653
:105AD000FEE700F033F800211046FFF72FFC00F03E
